:020000040800F2
:1000000088060020FD01000805020008070200081C
:10001000090200080B0200080D02000800000000A1
:100020000000000000000000000000000F020008B7
:100030001102000800000000130200081502000869
:10004000170200081702000817020008170200082C
:10005000170200081702000817020008170200081C
:10006000170200081702000817020008170200080C
:1000700017020008170200081702000817020008FC
:1000800017020008170200081702000817020008EC
:1000900017020008170200081702000817020008DC
:1000A00017020008170200081702000817020008CC
:1000B00017020008170200081702000817020008BC
:1000C00017020008170200081702000817020008AC
:1000D0001702000857080008170200081702000856
:1000E000170200081702000817020008170200088C
:1000F000170200081702000817020008170200087C
:10010000170200081702000817020008170200086B
:10011000170200081702000817020008170200085B
:10012000170200081702000817020008170200084B
:1001300000F002F800F03AF80AA090E8000C8244BF
:100140008344AAF10107DA4501D100F02FF8AFF29C
:10015000090EBAE80F0013F0010F18BFFB1A43F0A5
:1001600001031847280E0000480E0000103A24BF73
:1001700078C878C1FAD8520724BF30C830C144BF0C
:1001800004680C607047000000230024002500264E
:10019000103A28BF78C1FBD8520728BF30C148BFEA
:1001A0000B6070471FB51FBD10B510BD00F017FCE8
:1001B0001146FFF7F7FF00F013F800F035FC03B429
:1001C000FFF7F2FF03BC00F0C1FA000030BF72B6C7
:1001D00062B680F30888704710B500F01FF910BDB3
:1001E000FFF7FAFF03480068C0430349C1F8B401B0
:1001F00000BFFEE7B48121420080214209488047C8
:1002000009480047FEE7FEE7FEE7FEE7FEE7FEE7F8
:10021000FEE7FEE7FEE7FEE704480549054A064B10
:10022000704700001B03000831010008880000200F
:100230008806002088020020880200200CB50020DB
:10024000019000906C48006840F480306A49086072
:1002500000BF6948006800F4003000900198401C1D
:100260000190009818B90198B0F5A06FF1D16248DB
:10027000006800F4003010B10120009001E000207F
:1002800000900098012843D15C48006840F01000BD
:100290005A4908600846006820F0030008600846D4
:1002A000006840F0020008605348406852494860C6
:1002B0000846406848600846406840F480604860EE
:1002C0000846406820F47C1048600846406840F4C6
:1002D000E81048600846006840F08070086000BF81
:1002E0004548006800F000700028F9D04248406896
:1002F00020F00300404948600846406840F0020092
:10030000486000BF3C48406800F00C000828F9D164
:100310000CBD10B5FFF792FF10BD10B53648006850
:1003200040F00100344908600846406834490840FC
:100330003149486008460068324908402E49086043
:100340000846006820F4802008600846406820F4D1
:10035000FE0048604FF41F008860FFF7DAFF4FF09F
:1003600000602949086010BD10B50021002000225E
:10037000214B5B6803F00C0121B1042906D0082948
:1003800028D107E0214B224C236027E01F4B204C53
:10039000236023E0184B5B6803F47010164B5B6816
:1003A00003F48032022303EB904022B9194B4343FC
:1003B000174C23600DE0104B5B6803F4003323B14E
:1003C000144B4343124C236003E0104B4343104C47
:1003D000236003E00D4B0E4C236000BF00BF064BB3
:1003E0005B68C3F303130C4CE15C094B1B68CB4007
:1003F000074C236010BD00000010024000200240A6
:100400000000FFF8FFFFF6FE08ED00E000127A00A2
:100410000000002000093D0004000020174880690A
:1004200040F00800154988611548006820F4700004
:10043000134908600846006840F4401008601048FE
:100440000830006840F400500D49083108607047DA
:1004500018B900210B4A11600FE00B490968491CCB
:10046000094A1160814208D106490968C943074A0F
:10047000C2F8B4110021044A116070470010024014
:10048000040C0140B481214214000020008021426C
:10049000A34A0A400243A34B1A6070470146072350
:1004A00023EA010212029F4B1B1D18684FF6FF033F
:1004B00018409D4B184310439A4B1B1D1860704702
:1004C0002DE9F0410746884614461D462846FFF7A9
:1004D000E5FFC5F1040007FA00F60F20284100EA05
:1004E0000800064306F00F06E21704EBD262521131
:1004F000920002F1E022D2F800212146E31704EB3A
:10050000D3635B11A4EB431C012303FA0CF31A43DE
:100510002046E31704EBD3635B119B0003F1E02358
:10052000C3F800218148005D40EA06107F49085564
:10053000BDE8F08170B504460B46CE1701EB967608
:10054000C6F38700CE1701EB9676B610A1EB8606B0
:10055000B606350E764B9B6943F00103744EB361CA
:100560004FEAB63353F820300F26AE40B343714EF6
:1005700046F82030334653F8203004FA05F61E437F
:100580006C4B43F820606C4B1B6801268E40334354
:10059000694E336002F0010343B1674B0C331B68B3
:1005A00001268E403343644E0C36336002F0020362
:1005B00043B1614B08331E6801238B401E435E4BE1
:1005C00008331E6070BD00B5002059490861C8603D
:1005D0001420486100208861C8610846006840F026
:1005E0000100086008464068544908405049486086
:1005F00008460068524908404D49086008460068AE
:1006000020F4802008600846406820F4FE0048601E
:100610000020886000214FF00060FFF739FF00BD27
:1006200010B540480830006840F004003D490831EA
:1006300008603F48C06940F080503D49C86141486A
:10064000406840F480703F4948600846006840F0C8
:10065000040008600846006840F002000860FFF7E8
:10066000B5FD10BD3048001D2E49091D08607047BA
:10067000014649062E4A926942F001022C4B9A61CA
:100680002C4A083A526822F0E0622A4B083B5A6032
:100690001A4652680A435A60704730B5044600252E
:1006A000FFF791FF2248006840F48030204908603D
:1006B00000BF1F480068400C0028FAD04FF480604B
:1006C0001B494860A01EC4B20846406840EA844006
:1006D00048600846406840F4803048601A48006826
:1006E00040F03200184908601148006840F08070FE
:1006F0000F49086000BF0E480068400E0028FAD07D
:100700000B48406840F002000949486005E008488D
:100710004068C0F3870505F00305022DF7D130BD11
:1007200080FFFF1F08ED00E00000FA0500E400E094
:100730000010024008000140000401400000FFF8E2
:10074000FFFFF6FE0070004000200240014600BF9F
:10075000704700BF984A128802F04002002AF9D080
:10076000C2B2954B1B1D1A8070479449088000BF88
:100770009249091F098801F040010029F8D070470B
:100780002DE9F05F05460E46300100F09FFA8146E4
:100790008B4905FB01F000F099FA8246494600F0CA
:1007A000B3F90746384600F071FA84B2204600F0EB
:1007B0008DFA8346394600F069FB82464FF083414B
:1007C00000F098FA814600F061FA80464FF6FF701B
:1007D00000EA041404EB080084B27A48806940F00F
:1007E0000400784988610846806940F48040886147
:1007F0007548006820F47F60734908600846006807
:1008000040F40B6008606F48C06840F480406D4958
:10081000C8600846C06820F48040C8606748001D72
:100820000480001D008842F20C010843634908312E
:1008300008800846008840F48070088008460088D8
:1008400040F0200008800223252201210020FFF72C
:1008500037FEBDE8F09F5948001F00880020704710
:100860005549091D088000BF5349098801F040011E
:100870000029F9D070472DE9F05F05460E4630019A
:1008800000F024FA81464E4905FB01F000F01EFA03
:100890008246494600F038F90746384600F0F6F936
:1008A00084B2204600F012FA8346394600F0EEFA90
:1008B00082464FF0834100F01DFA814600F0E6F9D0
:1008C00080464FF6FF7000EA041404EB080084B27F
:1008D0003C48806940F004003A4988610846C06994
:1008E00040F40030C8613848001F006820F47F40A1
:1008F0003549091F08600846006840F40B4008604D
:1009000031480830006840F480602F4908310860A1
:100910002C48006940F480202A4908610846006993
:1009200020F480200861244808300480001D0088DD
:1009300042F20C01084320490C3108800846008827
:1009400040F4807008800846008840F0200008804D
:100950000223262201210020FFF7B2FDBDE8F09F0F
:100960001A480078F8B11A4800685A281BD00020AD
:10097000164A107016480068012806DB1448006803
:10098000082802DC124801780BE011480068412871
:1009900007DB0F480068482803DC0D480078403822
:1009A000C1B2084670470A4800685A2802D101209F
:1009B000064A10700020F5E700440040043801406A
:1009C00040420F00001002400408014020000020B7
:1009D0001C0000207047704770477047704775468D
:1009E00000F02CF8AE4605006946534620F007009B
:1009F000854618B020B5FFF70FFCBDE820404FF04A
:100A000000064FF000074FF000084FF0000B21F0F8
:100A10000701AC46ACE8C009ACE8C009ACE8C009C5
:100A2000ACE8C0098D46704710B50446AFF30080AE
:100A30002046BDE81040FFF7C2BB000000487047E9
:100A40002400002090EA010F48BF81F0004100F12E
:100A50002E82421A3CBF801A89184FEAD0524FF0BA
:100A60007F4C1CEA410FA2EBD15318BF9CEA026FE6
:100A700000F03B804FF0004C4CEA00204CEA012192
:100A800021FA03FC10EB0C0C1ED202F1FF325FEADC
:100A90001C2040EBC25038BF70471CF07F0F4FEA5C
:100AA000400C18BFBCF17F4F38BF7047C3F1200323
:100AB000994008BF20F00100BCF17F4F38BF70475C
:100AC000A0F1C04000F0DDB94FEA3C00000A40EB65
:100AD000C25028BF1CF0FF0F4FEA400CE6D018BFF1
:100AE000BCF17F4F38BF7047EAE79CEA026F05D040
:100AF00010EA5C0F08BF00F00040704710B500F02E
:100B00007AF900BF64FBBE3E4FF47F0C1CEAD012A2
:100B10001EBF1CEAD11392EA0C0F93EA0C0F00F0EF
:100B2000858090EA010F48BF42F4807240F4000CC7
:100B300041F400002CF07F4120F07F4000B581425D
:100B4000A2EB03020FF2081CACEB504EC0F1000008
:100B50009EF800E04FEA4E0E00FB0EFC38BF490045
:100B60004FEA2C1C02F5FA020CFB0EF34FEACE1EE4
:100B70004FEA112C4FEAC1210EEB635E42EB224299
:100B80000EFB0CFC4FEA1C5300FB03114FEA112C27
:100B90004FEA01310EFB0CFC4FEADC4C00FB0C1160
:100BA000C14228BF09184CEB03335DF804EB10EB8E
:100BB000410143EBC250B2F57C0F38BF704729D5D5
:100BC00012F0F00F1CBF00F1C04000F00040704771
:100BD000008182838485868788898B8C8D8E8F9116
:100BE0009293959697999A9C9D9FA0A2A3A5A7A83A
:100BF000AAACAEB0B2B3B5B7B9BCBEC0C2C5C7C966
:100C0000CCCED1D4D7D9DCDFE2E6E9ECF0F3F7FAC9
:100C1000FE0000004FEA400C0CF1807CBCF17E4FDE
:100C200028BF7047B0F1C04000F02BB990EA010F27
:100C30000CEAD11348BF42F48072624538BF634565
:100C400007D213F47F0F16D080EA010000F00040B5
:100C5000704710B500F0CFF8097EFC3E00F005B8F3
:100C600080EA010000F00040704780EA010000F0D7
:100C7000004000F006B912F47F0F04BF024870472D
:100C800080EA010000F0FDB80000C07FC10DD1F185
:100C90009E0206DB4FEA002343F0004323FA02F0F2
:100CA0007047004207D54FEA4001B1F1FE4F02D232
:100CB0004FF00000704710B500F09DF84992248075
:100CC000002070476FEA200070470000B0FA80F300
:100CD00010FA03F2C3F19D030AD0D90501EB1220EB
:100CE000530638BF704700F1010008BF20F0010033
:100CF000704700004FF47F0C1CEAD0121EBF1CEAA4
:100D0000D11392EA0C0F93EA0C0F00F0478090EA9F
:100D1000010F48BF42F480724FF0004C4CEA0020B3
:100D20004CEA012102EB0302A0FB0113A2F5000231
:100D3000002918BF43F001035B0028BF4FEA3303CB
:100D400042EB22425FEA132C4CEBC2502EBFBCEBAD
:100D5000436FB2F57C0F70474FEA036CBCF1004F54
:100D600008BF20F00100B2F57C0F38BF70470BD5EB
:100D700082F0FF0212F5803FC8BF704700F1C0400B
:100D8000D8BF00F00040704700F5000C5FEA4C0C43
:100D900048BF7047B0F1C04000F073B890EA010F4F
:100DA0000CEAD11348BF42F48072624538BF6345F4
:100DB00004D280EA010000F00040704710B500F056
:100DC0001AF800BF8900013E00F007B800F009B82A
:100DD0005FEA410C5FEA1C6C08D080EA010000F079
:100DE00050B85FEA400C5FEA1C6CF6D14FF000404F
:100DF000A0F5800070470EF1020E2EF0030E5EF893
:100E0000044B244204D44FEA4102B2F17F4F11D87F
:100E10004FEA4003B3F17F4F0CD80ED14FEAD07C9C
:100E2000B2F17F4F0CEB4C0C0CF1020C08BF4CEBF9
:100E3000D17C04E04FF0080C01E04FEAD17C0CEBD0
:100E40004C0324FA03F404F00704B4F1040C06D2B2
:100E50000EEB840CBDE810404CF0010C6047DFE85D
:100E60000CF0070802024FF00040A0F5800010BD12
:100E70000846420018BFD2F1807288BF00F00040DF
:100E800010BDFF2141EAD050C005704780F00040FE
:100E900090EA010F7FF5DDAD81F0004100F007B869
:100EA00090EA010F48BF81F000413FF5D2AD421AF0
:100EB00004D882F00042A0EB020011444FEAD05265
:100EC0004FF07F4C1CEA410FA2EBD15318BF9CEAB4
:100ED000026F4AD04FF0004C4CEA00204CEA01214E
:100EE00021FA03FCB0EB0C0C0FD412F0FE0F36D03D
:100EF0005FEA4C001DD5001240EBC25038BF70476E
:100F00001CF03F0F18BF70470BE0A2F101025FEA2F
:100F10001C2040EBC25038BF70471CF07F0F18BF39
:100F20007047C3F12003994014BF401E20F0010018
:100F3000704780084FEA122308BF7047B0FA80FC60
:100F4000A2EB0C02CCF1280C60FA0CF093EA122F01
:100F500004BF00EBC25070474FEAC3707047130ADA
:100F60005FEADC1008BF7047F6E79CEA026F04D026
:100F700010EA5C0F08BF0020704710B5FFF73BFF79
:100F800040DFF63E81F0004070470000AC0F0008E3
:100F900000000020240000006C010008D00F0008B1
:100FA00024000020640600008801000800A24A0412
:100FB0000000000000000000010203040607080909
:100FC0000000000000000000000000000100000020
:0400000508000131BD
:00000001FF
